{
  "transactions": [
    {
      "hash": "0x74c05fb42568b14f2258b36e3a58f62fe1a27da1ae8db02c19a630735df17751",
      "transactionType": "CALL",
      "contractName": null,
      "contractAddress": "0x779877a7b0d9e8603169ddbd7836e478b4624789",
      "function": "transferAndCall(address,uint256,bytes)",
      "arguments": [
        "0x9DdfaCa8183c41ad55329BdeeD9F6A8d53168B1B",
        "3000000000000000000",
        "0x105c0d64dceac0e9ae2a2125ba6c28c66f766398df030e171909514ebd2986ff"
      ],
      "transaction": {
        "from": "0x438b1c84708b271f25c441c8823245ab6676f681",
        "to": "0x779877a7b0d9e8603169ddbd7836e478b4624789",
        "gas": "0x1c1ff",
        "value": "0x0",
        "input": "0x4000aea00000000000000000000000009ddfaca8183c41ad55329bdeed9f6a8d53168b1b00000000000000000000000000000000000000000000000029a2241af62c000000000000000000000000000000000000000000000000000000000000000000600000000000000000000000000000000000000000000000000000000000000020105c0d64dceac0e9ae2a2125ba6c28c66f766398df030e171909514ebd2986ff",
        "nonce": "0x29",
        "chainId": "0xaa36a7"
      },
      "additionalContracts": [],
      "isFixedGasLimit": false
    }
  ],
  "receipts": [
    {
      "status": "0x1",
      "cumulativeGasUsed": "0x1ca5fe0",
      "logs": [
        {
          "address": "0x779877a7b0d9e8603169ddbd7836e478b4624789",
          "topics": [
            "0xddf252ad1be2c89b69c2b068fc378daa952ba7f163c4a11628f55a4df523b3ef",
            "0x000000000000000000000000438b1c84708b271f25c441c8823245ab6676f681",
            "0x0000000000000000000000009ddfaca8183c41ad55329bdeed9f6a8d53168b1b"
          ],
          "data": "0x00000000000000000000000000000000000000000000000029a2241af62c0000",
          "blockHash": "0x6620300fe173b4b6ec75c66bbacf86b0d5305c85659f8be888d8cac57753ca91",
          "blockNumber": "0x84d8de",
          "blockTimestamp": "0x686aafd4",
          "transactionHash": "0x74c05fb42568b14f2258b36e3a58f62fe1a27da1ae8db02c19a630735df17751",
          "transactionIndex": "0x1eb",
          "logIndex": "0x2eb",
          "removed": false
        },
        {
          "address": "0x779877a7b0d9e8603169ddbd7836e478b4624789",
          "topics": [
            "0xe19260aff97b920c7df27010903aeb9c8d2be5d310a2c67824cf3f15396e4c16",
            "0x000000000000000000000000438b1c84708b271f25c441c8823245ab6676f681",
            "0x0000000000000000000000009ddfaca8183c41ad55329bdeed9f6a8d53168b1b"
          ],
          "data": "0x00000000000000000000000000000000000000000000000029a2241af62c000000000000000000000000000000000000000000000000000000000000000000400000000000000000000000000000000000000000000000000000000000000020105c0d64dceac0e9ae2a2125ba6c28c66f766398df030e171909514ebd2986ff",
          "blockHash": "0x6620300fe173b4b6ec75c66bbacf86b0d5305c85659f8be888d8cac57753ca91",
          "blockNumber": "0x84d8de",
          "blockTimestamp": "0x686aafd4",
          "transactionHash": "0x74c05fb42568b14f2258b36e3a58f62fe1a27da1ae8db02c19a630735df17751",
          "transactionIndex": "0x1eb",
          "logIndex": "0x2ec",
          "removed": false
        },
        {
          "address": "0x9ddfaca8183c41ad55329bdeed9f6a8d53168b1b",
          "topics": [
            "0x1ced9348ff549fceab2ac57cd3a9de38edaaab274b725ee82c23e8fc8c4eec7a",
            "0x105c0d64dceac0e9ae2a2125ba6c28c66f766398df030e171909514ebd2986ff"
          ],
          "data": "0x000000000000000000000000000000000000000000000000000000000000000000000000000000000000000000000000000000000000000029a2241af62c0000",
          "blockHash": "0x6620300fe173b4b6ec75c66bbacf86b0d5305c85659f8be888d8cac57753ca91",
          "blockNumber": "0x84d8de",
          "blockTimestamp": "0x686aafd4",
          "transactionHash": "0x74c05fb42568b14f2258b36e3a58f62fe1a27da1ae8db02c19a630735df17751",
          "transactionIndex": "0x1eb",
          "logIndex": "0x2ed",
          "removed": false
        }
      ],
      "logsBloom": "0x00000004000000000200000000000000000000000020000000080000020000000000000000000000000000000000000000000000000000000000000000000000000000000000000000000008000000000000000000000000000020000020000008000000000000000000000000000000000000000000000000000010000040000000000000000000000000010000800000000020000000000000000000000000000000000000000000000100010000000000000000000040000004000000000000000002000000000000000000000000000000000000000100000000000000000010000000000000800000000000000040000000040000000000000000000000",
      "type": "0x2",
      "transactionHash": "0x74c05fb42568b14f2258b36e3a58f62fe1a27da1ae8db02c19a630735df17751",
      "transactionIndex": "0x1eb",
      "blockHash": "0x6620300fe173b4b6ec75c66bbacf86b0d5305c85659f8be888d8cac57753ca91",
      "blockNumber": "0x84d8de",
      "gasUsed": "0x133b1",
      "effectiveGasPrice": "0x276255a",
      "from": "0x438b1c84708b271f25c441c8823245ab6676f681",
      "to": "0x779877a7b0d9e8603169ddbd7836e478b4624789",
      "contractAddress": null
    }
  ],
  "libraries": [],
  "pending": [],
  "returns": {},
  "timestamp": 1751822293,
  "chain": 11155111,
  "commit": "b7b547d"
}